{"abi":[{"type":"constructor","inputs":[{"name":"_priceFeed","type":"address","internalType":"address"},{"name":"eNRSAddress","type":"address","internalType":"address"}],"stateMutability":"nonpayable"},{"type":"function","name":"balances","inputs":[{"name":"","type":"address","internalType":"address"},{"name":"","type":"uint256","internalType":"uint256"}],"outputs":[{"name":"","type":"uint256","internalType":"uint256"}],"stateMutability":"view"},{"type":"function","name":"depositCollateral","inputs":[],"outputs":[{"name":"","type":"bool","internalType":"bool"}],"stateMutability":"payable"},{"type":"function","name":"deposited","inputs":[{"name":"","type":"address","internalType":"address"}],"outputs":[{"name":"","type":"uint256","internalType":"uint256"}],"stateMutability":"view"},{"type":"function","name":"getNRSValue","inputs":[{"name":"_amount","type":"uint256","internalType":"uint256"}],"outputs":[{"name":"","type":"uint256","internalType":"uint256"}],"stateMutability":"view"},{"type":"function","name":"mintTokens","inputs":[{"name":"_amount","type":"uint256","internalType":"uint256"}],"outputs":[{"name":"","type":"bool","internalType":"bool"}],"stateMutability":"nonpayable"},{"type":"function","name":"redeemToken","inputs":[{"name":"_amount","type":"uint256","internalType":"uint256"}],"outputs":[{"name":"","type":"bool","internalType":"bool"}],"stateMutability":"nonpayable"},{"type":"error","name":"FailedToMint","inputs":[]},{"type":"error","name":"NotEnoughBalance","inputs":[]},{"type":"error","name":"NotEnoughTokensToredeem","inputs":[]},{"type":"error","name":"ReentrancyGuardReentrantCall","inputs":[]}],"bytecode":{"object":"0x60c060405234801561001057600080fd5b5060405161078f38038061078f83398101604081905261002f91610067565b60016000556001600160a01b039182166080521660a05261009a565b80516001600160a01b038116811461006257600080fd5b919050565b6000806040838503121561007a57600080fd5b6100838361004b565b91506100916020840161004b565b90509250929050565b60805160a0516106c96100c6600039600081816101fc0152610476015260006102f701526106c96000f3fe6080604052600436106100555760003560e01c8063013054c21461005a578063319000e51461008f5780636f758140146100bd57806397304ced146100c5578063cb13cddb146100e5578063cbf1304d14610112575b600080fd5b34801561006657600080fd5b5061007a610075366004610511565b61014a565b60405190151581526020015b60405180910390f35b34801561009b57600080fd5b506100af6100aa366004610511565b6102f2565b604051908152602001610086565b61007a6103c4565b3480156100d157600080fd5b5061007a6100e0366004610511565b6103f1565b3480156100f157600080fd5b506100af610100366004610546565b60026020526000908152604090205481565b34801561011e57600080fd5b506100af61012d366004610568565b600160209081526000928352604080842090915290825290205481565b3360009081526001602090815260408083206002835281842054845290915281205482111561018c5760405163b33d4cad60e01b815260040160405180910390fd5b33600090815260016020908152604080832060028352818420548452909152812080548492906101bd9084906105a8565b909155505033600090815260026020526040812080548492906101e19084906105a8565b9091555050604051630852cd8d60e31b8152600481018390527f00000000000000000000000000000000000000000000000000000000000000006001600160a01b0316906342966c6890602401600060405180830381600087803b15801561024857600080fd5b505af115801561025c573d6000803e3d6000fd5b50506040516000925033915084908381818185875af1925050503d80600081146102a2576040519150601f19603f3d011682016040523d82523d6000602084013e6102a7565b606091505b50509050806102ec5760405162461bcd60e51b815260206004820152600d60248201526c14995919595b4811985a5b1959609a1b604482015260640160405180910390fd5b92915050565b6000807f000000000000000000000000000000000000000000000000000000000000000090506000816001600160a01b031663feaf968c6040518163ffffffff1660e01b815260040160a060405180830381865afa158015610358573d6000803e3d6000fd5b505050506040513d601f19601f8201168201806040525081019061037c91906105d5565b505050915050670de0b6b3a764000084826402540be40061039d9190610625565b6103a8906085610625565b6103b29190610625565b6103bc919061063c565b949350505050565b336000908152600260205260408120805434919083906103e590849061065e565b90915550600192915050565b336000908152600260205260408120548211156104215760405163569d45cf60e11b815260040160405180910390fd5b336000908152600160209081526040808320600283528184205484529091528120805484929061045290849061065e565b90915550506040516340c10f1960e01b8152336004820152602481018390526000907f00000000000000000000000000000000000000000000000000000000000000006001600160a01b0316906340c10f19906044016020604051808303816000875af11580156104c7573d6000803e3d6000fd5b505050506040513d601f19601f820116820180604052508101906104eb9190610671565b905080156104f95792915050565b6040516248195d60e01b815260040160405180910390fd5b60006020828403121561052357600080fd5b5035919050565b80356001600160a01b038116811461054157600080fd5b919050565b60006020828403121561055857600080fd5b6105618261052a565b9392505050565b6000806040838503121561057b57600080fd5b6105848361052a565b946020939093013593505050565b634e487b7160e01b600052601160045260246000fd5b818103818111156102ec576102ec610592565b805169ffffffffffffffffffff8116811461054157600080fd5b600080600080600060a086880312156105ed57600080fd5b6105f6866105bb565b9450602086015193506040860151925060608601519150610619608087016105bb565b90509295509295909350565b80820281158282048414176102ec576102ec610592565b60008261065957634e487b7160e01b600052601260045260246000fd5b500490565b808201808211156102ec576102ec610592565b60006020828403121561068357600080fd5b8151801515811461056157600080fdfea264697066735822122011ee7a1735ed1ba8d6648d6764b0144126691557cb571c1e605e3e32a649d0eb64736f6c63430008140033","linkReferences":{}},"methodIdentifiers":{"balances(address,uint256)":"cbf1304d","depositCollateral()":"6f758140","deposited(address)":"cb13cddb","getNRSValue(uint256)":"319000e5","mintTokens(uint256)":"97304ced","redeemToken(uint256)":"013054c2"},"id":27}